:1000000049C0000064C0000084C0000060C000005F
:100010005EC000005CC000005AC0000058C0000074
:1000200056C0000054C0000052C0000050C0000084
:100030004EC000004CC000004AC0000048C0000094
:1000400046C0000044C0000042C0000040C00000A4
:100050003EC000003CC000003AC0000038C00000B4
:1000600036C0000034C0000032C0000030C00000C4
:100070002EC000002CC000002AC0000028C00000D4
:1000800026C0000024C0000022C0000020C00000E4
:100090001EC0000011241FBECFEFD0E1DEBFCDBFD8
:1000A00011E0A0E0B1E0E6E4F4E000E00BBF02C044
:1000B00007900D92A030B107D9F721E0A0E0B1E0A0
:1000C00001C01D92A539B207E1F717D0BAC198CF88
:1000D000E0910201F0910301EE0FFF1FEC5FFE4F74
:1000E00080819181E0910001F0910101EE0FFF1FED
:1000F000EC5FFE4F91838083089511B880EF87B93C
:1001000082E08BB998E0909369008DBB86D078949B
:10011000FFCF1F920F920FB60F9211240BB60F92C2
:100120002F933F934F935F936F937F938F939F93FF
:10013000AF93BF93EF93FF9337D080E188B9C8DFC7
:1001400018B8FF91EF91BF91AF919F918F917F91DF
:100150006F915F914F913F912F910F900BBE0F9038
:100160000FBE0F901F901895FB0116821782148204
:100170001582FC0110820895FC0110821182128206
:10018000138208950F931F93FB0191838083FA01DB
:10019000108288E0F90111928A95E9F781E0F8016F
:1001A00080831F910F91089586B182FB882780F983
:1001B0008093150196B1892F827091FD88EC96B1DC
:1001C000292F217090FD24E6E5E1F1E0820F828382
:1001D00080B18170818380B186958170838380B185
:1001E00082FB882780F9848380B183FB882780F98C
:1001F000858380B182958170808780B185FB882757
:1002000080F9818780B186FB882780F9868380B159
:10021000881F8827881F878308953ED01092070182
:10022000109206010895EF92FF920F931F93F7012A
:1002300011861086178216821486138612861586FA
:1002400014821582FC011082FB011082FA011082D7
:10025000F9011082F80110821F910F91FF90EF9029
:100260000895FC01108211821282138208950F9367
:100270001F93FB019183808385E0FA0111928A9597
:10028000E9F78EE0F90111928A95E9F783E0F80128
:1002900080831F910F910895EF92FF920F931F9308
:1002A00086E7EFE1F1E0DF011D928A95E9F78AE048
:1002B000E5E1F1E0DF011D928A95E9F78BE0E8E0E6
:1002C000F1E0DF011D928A95E9F706E311E02CE2E7
:1002D00031E04BE251E064E371E083E191E052DF11
:1002E0000EE411E024E431E043E451E06CE471E019
:1002F00083E191E047DF0EE711E024E731E043E7D7
:1003000051E06CE771E083E191E03CDF06E611E04B
:100310002CE531E04BE551E064E671E083E191E0EA
:1003200031DF0AE211E020E231E04FE151E068E222
:1003300071E083E191E026DF02E411E028E331E09F
:1003400047E351E060E471E083E191E01BDF02E705
:1003500011E028E631E047E651E060E771E083E133
:1003600091E010DF0AE511E020E531E04FE451E0D3
:1003700068E571E083E191E005DF04E911E024E83C
:1003800031E04FE751E062E971E083E191E06FDF36
:1003900080E291E0F1DE8CE291E0EEDE88E391E034
:1003A000EBDE84E491E0E8DE80E591E0E5DE8CE5DB
:1003B00091E0E2DE88E691E0DFDE84E791E0DCDEDA
:1003C00084E891E04EDF60E271E08FE191E0CCDE05
:1003D0006CE271E08BE291E0C7DE68E371E087E3F5
:1003E00091E0C2DE64E471E083E491E0BDDE60E5AB
:1003F00071E08FE491E0B8DE6CE571E08BE591E0AF
:10040000B3DE68E671E087E691E0AEDE64E771E0B6
:1004100083E791E0A9DE0F2EF4E8EF2EF1E0FF2E46
:10042000F02D0CE011E02BE031E04AE051E069E012
:1004300071E088E091E0F7DE1F910F91FF90EF905F
:060440000895F894FFCFBF
:00000001FF
